:020000040800F2
:1000000040040020450100085D070008F1060008D3
:10001000590700082F020008B10F00080000000077
:10002000000000000000000000000000510A00086D
:10003000D105000800000000E5070008D50B000806
:100040005F0100085F0100085F0100085F01000810
:100050005F0100085F0100085F0100085F01000800
:100060005F0100085F0100085F0100085F010008F0
:100070005F0100085F01000805030008290300086C
:100080005F0100085F0100085F0100085F010008D0
:100090005F0100085F0100085F0100085F010008C0
:1000A0005F0100085F0100085F0100085F010008B0
:1000B0005F0100085F0100085F0100085F010008A0
:1000C0005F0100085F0100085F0100085F01000890
:1000D0005F010008750C00085F0100085F0100085F
:1000E0005F0100085F0100085F0100085F01000870
:1000F0005F0100085F0100085F0100085F01000860
:100100005F0100085F0100085F0100085F0100084F
:100110005F0100085F0100085F0100085F0100083F
:100120005F0100085F0100085F0100085F0100082F
:10013000DFF80CD000F04AF800480047C914000866
:10014000400400200648804706480047FEE7FEE7D7
:10015000FEE7FEE7FEE7FEE7FEE7FEE7FEE7FEE777
:10016000150C0008310100082DE9F05F054600205C
:1001700092469B4688460646814640241BE0284618
:1001800041464746224600F042F853465A46C01AB6
:10019000914110D311461846224600F029F82D1A35
:1001A00067EB01084F4622460120002100F020F8AD
:1001B00017EB00094E41201EA4F10104DFDC484684
:1001C00031462A464346BDE8F09F0000064C074DE5
:1001D00006E0E06840F0010394E807009847103417
:1001E000AC42F6D3FFF7A8FF4C1500086C150008C9
:1001F000202A04DB203A00FA02F1002070479140E7
:10020000C2F1200320FA03F3194390407047202ADB
:1002100004DB203A21FA02F00021704721FA02F3B0
:10022000D040C2F12002914008431946704700BFF8
:10023000FEE7000030B500240023002500BF56E093
:100240002C48035D2C48007806284CD2DFE800F0EB
:100250000309121A2942552B02D1012026490870A0
:1002600042E01BB902202449087002E00020224924
:10027000087039E0012500202049087003201E493C
:10028000087031E01D480078834206D104201A49E5
:10029000087000201A49087002E000201649087012
:1002A00022E01748007815490978884209DA114890
:1002B00013490978435412480078401C10490870CB
:1002C00007E01BB905200C49087002E000200A492C
:1002D000087009E0AA2B02D1284600F07FFD00201B
:1002E0000549087000E000BF00BF601CC4B20C2CC0
:1002F000A6DB30BD200000201400002016000020E6
:100300001500002010B54FF4005000F0DFF830B1B8
:1003100003A000F04FFE4FF4005000F017F810BD9E
:1003200073656E646564000010B54FF4003000F032
:10033000CDF830B103A000F03DFE4FF4003000F0E6
:1003400005F810BD73656E646564000000F08051AF
:1003500011B10349086001E002494860704700009C
:10036000040402400000024021B1026842F0010290
:10037000026004E002684FF6FE731A4002607047A4
:1003800001684FF6FE72114001600021016041607A
:100390008160C1604B49884208D14A49083949689F
:1003A00041F00F01474A083A51608AE0454914314B
:1003B000884208D143490839496841F0F001414A6F
:1003C000083A51607DE03F492831884208D13D49D3
:1003D0000839496841F470613A4A083A516070E05E
:1003E00038493C31884208D136490839496841F4D6
:1003F0007041344A083A516063E0324950318842D2
:1004000008D130490839496841F470212D4A083A29
:10041000516056E02B496431884208D12949083996
:10042000496841F47001274A083A516049E025497A
:100430007831884208D123490839496841F0706110
:10044000204A083A51603CE01F49884206D1011F0A
:10045000096841F00F01021F116032E01A4914319E
:10046000884208D11849091F096841F0F001164A6D
:10047000121F116025E014492831884208D1124921
:10048000091F096841F470610F4A121F116018E0DA
:100490000D493C31884208D10B49091F096841F4D4
:1004A0007041094A121F11600BE007495031884220
:1004B00007D10549091F096841F47021024A121F3A
:1004C0001160704708000240080402400146002005
:1004D000002201F0805313B1054B1A6801E0054B6F
:1004E0001A6802EA01030BB1012000E00020704706
:1004F000000402400000024010B50022026847F6E6
:10050000F0739A430C6A8B6823430C6923434C694C
:1005100023438C692343CC6923434C6A23438C6A6D
:1005200023431A430260CB6843600B6883604B68C7
:10053000C36010BDF0B58BB007460C4615461E468D
:100540000121084600F050F93846FFF719FF0094E2
:1005500001950020029003960490802005900020D1
:1005600006900790202008904FF4405009900020FA
:100570000A9069463846FFF7BFFF0BB0F0BDF0B5F3
:100580008BB007460C4615461E460121084600F072
:100590002BF93846FFF7F4FE0094019510200290E5
:1005A000039600200490802005900020069007907C
:1005B00008904FF40050099000200A906946384690
:1005C000FFF79AFF00213846FFF7CEFE0BB0F0BDD3
:1005D00070472DE9F0410246002500260020002347
:1005E0000024002791F803C00CF00F0591F803C018
:1005F0000CF0100CBCF1000F03D091F802C04CEAD3
:10060000050591F800C0BCF1000F31D0146800203E
:100610002BE04FF0010C0CFA00F3B1F800C00CEA2B
:1006200003069E4220D183004FF00F0C0CFA03F713
:10063000BC4305FA03FC4CEA040491F803C0BCF186
:10064000280F06D14FF0010C0CFA00FCC2F814C0C0
:100650000AE091F803C0BCF1480F05D14FF0010C3E
:100660000CFA00FCC2F810C0401C0828D1D314605A
:10067000B1F800C0BCF1FF0F34DD546800202EE05B
:1006800000F1080C4FF0010808FA0CF3B1F800C0B3
:100690000CEA03069E4221D183004FF00F0C0CFAA6
:1006A00003F7BC4305FA03FC4CEA040491F803C0C9
:1006B000BCF1280F05D100F1080C08FA0CF8C2F8BB
:1006C000148091F803C0BCF1480F07D100F1080C69
:1006D0004FF0010808FA0CF8C2F81080401C0828F6
:1006E000CED35460BDE8F08141617047016170472D
:1006F00000BFFEE708B50121042000F095F84FF493
:100700008070ADF8000010208DF8030003208DF8F4
:10071000020069460E48FFF75CFF4FF480710C48F9
:10072000FFF7E4FF0121202000F07EF80420ADF85F
:10073000000010208DF8030003208DF802006946A8
:100740000448FFF746FF04210248FFF7CDFF08BD2C
:10075000000801400014014000BFFEE770470000A0
:1007600070B5002100230F22C47804B3154C24680F
:1007700004F4E064C4F5E064210AC1F10403CA4052
:10078000447804FA03F184781440214309010E4CA3
:100790000678A155047804F01F050124AC400578C3
:1007A0006D11AD0005F1E025C5F8004109E00478C0
:1007B00004F01F050124AC40044D0678761145F87D
:1007C000264070BD0CED00E000E400E080E100E0B8
:1007D00002490143024A1160704700000000FA0517
:1007E0000CED00E07047000029B1064A526902434F
:1007F000044B5A6104E0034A52698243014B5A6137
:10080000704700000010024029B1064AD269024335
:10081000044BDA6104E0034AD2698243014BDA6196
:10082000704700000010024029B1064A9269024355
:10083000044B9A6104E0034A92698243014B9A6136
:10084000704700000010024030B500210022002453
:1008500000232D4D6D6805F00C0121B1042905D050
:10086000082923D105E0294D056022E0274D0560C8
:100870001FE0254D6D6805F47012234D6D6805F479
:100880008034022505EB92421CB9214D5543056089
:100890000BE01D4D6D6805F400351DB11C4D554331
:1008A000056002E0194D5543056002E0174D0560F3
:1008B00000BF00BF144D6D6805F0F0010909154D2A
:1008C0006B5C0568DD4045600F4D6D6805F4E061C7
:1008D000090A104D6B5C4568DD4085600A4D6D6806
:1008E00005F46051C90A0B4D6B5C4568DD40C5607D
:1008F000054D6D6805F44041890B074D6B5CC5687B
:10090000B5FBF3F5056130BD0010024000127A001E
:1009100000093D00000000201000002000B587B055
:1009200001210820FFF780FF01218803FFF76CFFFA
:100930004FF46040ADF8180018208DF81B0003201C
:100940008DF81A0006A91648FFF743FE0020ADF8FF
:1009500004004FF48270ADF806000020ADF80800E6
:100960000220ADF80A000120ADF80C004002ADF8FD
:100970000E003820ADF810000020ADF8120007205E
:10098000ADF8140001A9074800F044F8012105481A
:1009900000F026F8FF2000F007F807B000BD0000C7
:1009A000000C01400038004010B5044600BF022191
:1009B0000A4800F021F80028F9D02146074800F045
:1009C00027F800BF0121054800F016F80028F9D0EB
:1009D000024800F01AF8C0B210BD00000038004014
:1009E00021B1028842F04002028004E002884FF602
:1009F000BF731A40028070470246002013890B40E3
:100A00000BB1012000E00020704701468889704743
:100A10008181704710B50022028802F441520B8890
:100A20004C8823438C882343CC8823430C8923435D
:100A30004C8923438C892343CC8923431A43028066
:100A4000838B4FF2FF74234083830B8A038210BD94
:100A50007047000008B501210820FFF7E5FE40209F
:100A6000ADF8000010208DF8030003208DF802007F
:100A700069460648FFF7ADFD40210548FFF736FE01
:100A8000012004490860FFF749FF08BD002001402C
:100A9000000C01409881214270B50024002590206F
:100AA000FFF782FF04469020FFF77EFF05462A46A7
:100AB000214602A000F07EFA70BD0000256F0925D6
:100AC0006F09000010B500F001F810BD0CB5002052
:100AD000019000903348006840F48030314908604C
:100AE00000BF3048006800F4003000900198401CBE
:100AF0000190009818B90198B0F5A06FF1D129487C
:100B0000006800F4003010B10120009001E00020E6
:100B100000900098012843D12348006840F010005D
:100B2000214908600846006820F003000860084674
:100B3000006840F0020008601A484068194948609F
:100B40000846406848600846406840F48060486055
:100B50000846406820F47C1048600846406840F42D
:100B6000E81048600846006840F08070086000BFE8
:100B70000C48006800F000700028F9D0094840686F
:100B800020F00300074948600846406840F0020032
:100B9000486000BF0348406800F00C000828F9D105
:100BA0000CBD00000010024000200240042808D1C3
:100BB0004FF0E021096941F004014FF0E02211619A
:100BC00007E04FF0E021096921F004014FF0E02235
:100BD000116170477047000010B504466FF00400C3
:100BE000FFF7E4FFE11704EB5171C1F3C701074AB6
:100BF00011701046007800EB4001C1EBC0104FF6B9
:100C0000FF7101EAC0000249088010BD18000020F1
:100C10001A00002010B51348006840F00100114987
:100C2000086008464068104908400E494860084678
:100C300000680E4908400B4908600846006820F427
:100C4000802008600846406820F4FE0048604FF4A9
:100C50001F008860FFF736FF4FF00060044908600E
:100C600010BD0000001002400000FFF8FFFFF6FE7C
:100C700008ED00E010B540F224410C4800F0D9F82E
:100C800098B10A4800880948001D008800210848DA
:100C9000FFF76AFBFFF7CEFA01210548FFF764FB77
:100CA00040F22441014800F074F810BD00380140C2
:100CB0005800024010B586B0044601210420FFF719
:100CC000B3FD01218803FFF7AFFD01210846FFF7BF
:100CD000ABFD4FF40070ADF8140003208DF8160042
:100CE00018208DF8170005A92248FFF772FC4FF471
:100CF0008060ADF8140004208DF8170005A91D4888
:100D0000FFF767FC01940020ADF80800ADF80A0079
:100D1000ADF80C00ADF810000C20ADF80E0001A9E4
:100D2000154800F0D5F80121134800F041F84021A2
:100D3000114800F025F8012240F224410E4800F04D
:100D4000A2F801210D48FFF70FFB012240210A48BC
:100D500000F03AF825208DF8000003208DF80100FE
:100D60008DF8020001208DF803006846FFF7F8FCBB
:100D700006B010BD00080140003801405800024094
:100D800001F40072B2F5007F00D100BFCA430280B7
:100D9000704710B50022002340F66A14A14200D12A
:100DA00000BF0A1201249440A3B2DC43048010BDAA
:100DB00021B1828942F40052828104E082894DF699
:100DC000FF731A40828170471AB1838A0B43838272
:100DD00002E0838A8B43838270470000012813D18D
:100DE0000B490978491C0A4A1170114609780229F1
:100DF00003DC0021074A116005E00121054A11606A
:100E00000021034A117000E000BF00BF70470000DE
:100E1000170000208881224202460020B1F5007FA1
:100E200000D100BF13880B400BB1012000E000206F
:100E3000704770B50246002400230025002040F6CC
:100E40006A16B14200D100BFC1F3421501F01F0381
:100E5000012606FA03F3012D02D19689334006E0FC
:100E6000022D02D1168A334001E0968A33400C12DB
:100E7000012606FA04F41688344013B10CB101209F
:100E800000E0002070BDF0B50346002400260025D8
:100E9000002040F66A17B94200D100BF1846C1F3DE
:100EA000421401F01F06012707FA06F5012C01D1B3
:100EB0000C3004E0022C01D1103000E014301AB1E3
:100EC00007682F43076002E00768AF430760F0BD83
:100ED0002DE9F04786B005460E460024A24600BF25
:100EE000A1460027B08900B100BF2F462C8A4CF6DE
:100EF000FF700440F08804432C82AC894EF6F31056
:100F00000440B08831890843718908430443AC81A7
:100F1000AC8A4FF6FF400440B0890443AC8201A87C
:100F2000FFF792FC1F48874202D1DDF810A001E0D4
:100F3000DDF80CA0A88900F4004040B10AEBCA001B
:100F400000EB0A1031684900B0FBF1F807E00AEB4A
:100F5000CA0000EB0A1031688900B0FBF1F8642088
:100F6000B8FBF0F004012009642101FB1089A88975
:100F700000F4004040B1322000EBC900B0FBF1F0BA
:100F800000F00700044308E0322000EB0910642160
:100F9000B0FBF1F000F00F0004432C8106B0BDE877
:100FA000F087000000380140C1F3080282807047DA
:100FB00000BFFEE70FB4054B10B503A9044A029821
:100FC00000F018F810BC5DF814FB0000A514000830
:100FD0001C00002002E008C8121F08C1002AFAD134
:100FE00070477047002001E001C1121F002AFBD1A9
:100FF000704700002DE9FF4F8DB00F4605460026D3
:1010000006E025280BD0DDE90F1290476D1C761CF9
:1010100028780028F5D111B03046BDE8F08F0024C3
:10102000A246A1460122EC4900E0044315F8013F25
:10103000203B02FA03F00842F7D128782A2810D082
:101040006FF02F022878A0F13001092914D80AEB9B
:101050008A0102EB410144F0020400EB010A6D1C1D
:10106000F0E701CF5FEA000A03D544F40054CAF167
:10107000000A44F002046D1C28782E2817D115F8B8
:10108000010F44F004042A280ED06FF02F022878B4
:10109000A0F1300109290AD809EB890102EB4101CD
:1010A00000EB01096D1CF2E757F8049B6D1C2878D2
:1010B0006C280FD006DC4C2817D068280DD06A2881
:1010C00014D104E0742810D07A280FD10DE044F434
:1010D00000140AE044F4801401E044F440146978F8
:1010E000814202D104F580146D1C6D1C2A786E2A91
:1010F0001FD00CDC632A31D004DC002A8BD0582AA4
:1011000011D1A3E0642A68D0692A0CD165E0732A62
:101110002ED004DC6F2A73D0702A04D19BE0752A8C
:101120006FD0782A6ED01046DDE90F129047761CFA
:1011300050E1C4F30250022806D0032809D0042845
:1011400001CF09D0066045E101CFF117C0E9006188
:1011500040E101CF06803DE106703BE117F8040B4A
:101160008DF8000000208DF80100EB46012003E01F
:1011700057F804BB4FF0FF3061074FF0000102D475
:101180000DE008F10101884649450FDA8045F8DB9A
:101190001BF808100029F4D108E008F10101884685
:1011A0008142FADB1BF808100029F6D1DDE90F2394
:1011B000AAEB08008146214600F036F9304400EBE6
:1011C000080604E0DDE90F121BF8010B9047B8F1A7
:1011D0000108F7D221464846F7E00A21C4F302533A
:1011E0004FF0000B0891022B04D001CFC117032B45
:1011F00009D00AE0FF1D27F00707F7E8020108E021
:1012000032E01FE020E000B2C117042B01D140B250
:10121000C117031E71F1000307DA4FF0000CD0EB89
:101220000C006CEB01012D2302E0230504D52B23D8
:101230008DF82430012303E0E30701D02023F7E7F2
:10124000984658E00A2110E010210EE010204FF0DF
:10125000000B08900CE010214FF0000B44F0040448
:101260004FF00809089103E008214FF0000B0891A6
:10127000C4F30253022B04D001CF0021032B06D06C
:1012800006E0FF1D27F00707F7E8020103E080B240
:10129000042B00D1C0B24FF0000823072BD5702AD1
:1012A00007D0DDF820C08CF0100C5CEA0B0C05D0E8
:1012B0000EE040238DF82430012308E050EA0103BA
:1012C00006D030238DF824308DF82520022398464F
:1012D000DDF820C08CF0080C5CEA0B0C0BD150EA56
:1012E000010301D1630706D530238DF824304FF078
:1012F0000108A9F10109582A04D038A20B9208AAC2
:101300000A920BE03AA2F9E75B46089AFEF72CFF37
:101310000B9B9B5C0A9A521E0A92137050EA0102C0
:10132000F2D10A98ADEB000000F1200B600702D566
:1013300024F4803401E04FF00109D94502DDA9EB26
:101340000B0000E0002000EB0B0141440890AAEBE9
:10135000010AE00306D4DDE90F232146504600F0E0
:1013600063F806444FF0000908E009A911F80900E4
:10137000DDE90F12904709F10109761CC145F4DB44
:10138000E0030CD5DDE90F232146504600F04CF870
:10139000064404E0DDE90F1230209047761C0899DE
:1013A000481E08900029F5DC08E00A980A990078A0
:1013B000491C0A91DDE90F129047761CBBF1000130
:1013C000ABF1010BF1DC21465046DDE90F2300F0C3
:1013D00019F806446D1C1BE6092801003031323330
:1013E0003435363738396162636465660000000061
:1013F000303132333435363738394142434445464B
:10140000000000002DE9F041044600251E46174665
:10141000880404D405E039462020B0476D1C641EC2
:10142000F9D52846BDE8F0812DE9F04104460025B4
:101430001E469046C80301D5302700E020278804C7
:1014400004D505E041463846B0476D1C641EF9D509
:101450002846BDE8F08100000146114A12884A433F
:101460004FF0E0235A6100229A611A46126942F055
:1014700001021A6100BF4FF0E022106900F0010282
:101480001AB100F48032002AF5D04FF0E022126940
:1014900022F001024FF0E0231A6100229A617047A6
:1014A0001A00002070B504460D46E1B20548FFF76A
:1014B0007BFD00BF80210348FFF7AEFC0028F9D078
:1014C000204670BD0038014000244820FFF784FB0F
:1014D0004FF4A060FFF77CF90C23174A174918480E
:1014E000FFF728F80F23174A144915481438FFF757
:1014F00046F8FFF7AFFAFFF7FDF84FF41650FFF785
:10150000D9FB17E0601CC4B2142094FBF0F100FB7F
:10151000114038B90C48006808B9012000E00020EB
:1015200009490860C82C02D1FFF7B6FA00240A2046
:10153000FFF792FFE6E7000020000020043801409A
:10154000580002402C000020A00121426C15000828
:101550000000002020000000D40F00088C150008B7
:101560002000002020040000E40F0008000000001C
:101570000102030401020304060708090204060825
:0C1580000000000000000000000000005F
:0400000508000131BD
:00000001FF
