:020000040800F2
:100000004004002045010008850600084906000854
:10001000810600088D010008150D00080000000091
:10002000000000000000000000000000250800089B
:100030002D050008000000000D0700083909000820
:100040005F0100085F0100085F0100085F01000810
:100050005F0100085F0100085F0100085F01000800
:100060005F0100085F0100085F0100085F010008F0
:100070005F0100085F0100086102000885020008B6
:100080005F0100085F0100085F0100085F010008D0
:100090005F0100085F0100085F0100085F010008C0
:1000A0005F0100085F0100085F0100085F010008B0
:1000B0005F0100085F0100085F0100085F010008A0
:1000C0005F0100085F0100085F0100085F01000890
:1000D0005F010008D90900085F0100085F010008FE
:1000E0005F0100085F0100085F0100085F01000870
:1000F0005F0100085F0100085F0100085F01000860
:100100005F0100085F0100085F0100085F0100084F
:100110005F0100085F0100085F0100085F0100083F
:100120005F0100085F0100085F0100085F0100082F
:10013000DFF80CD000F018F800480047D90D00088F
:10014000400400200648804706480047FEE7FEE7D7
:10015000FEE7FEE7FEE7FEE7FEE7FEE7FEE7FEE777
:100160007909000831010008064C074D06E0E068F7
:1001700040F0010394E8070098471034AC42F6D3EE
:10018000FFF7DAFF540E0008740E000800BFFEE708
:1001900030B500240023002500BF56E02C48035D45
:1001A0002C48007806284CD2DFE800F00309121A28
:1001B0002942552B02D101202649087042E01BB983
:1001C00002202449087002E000202249087039E02A
:1001D000012500202049087003201E49087031E0E5
:1001E0001D480078834206D104201A490870002077
:1001F0001A49087002E000201649087022E01748EA
:10020000007815490978884209DA114813490978B4
:10021000435412480078401C1049087007E01BB98D
:1002200005200C49087002E000200A49087009E026
:10023000AA2B02D1284600F083FC00200549087053
:1002400000E000BF00BF601CC4B20C2CA6DB30BDB8
:1002500020000020140000201600002015000020BF
:1002600010B54FF4005000F0DFF830B103A000F0FB
:1002700053FD4FF4005000F017F810BD73656E6425
:100280006564000010B54FF4003000F0CDF830B1D7
:1002900003A000F041FD4FF4003000F005F810BD60
:1002A00073656E646564000000F0805111B103490C
:1002B000086001E002494860704700000404024001
:1002C0000000024021B1026842F00102026004E035
:1002D00002684FF6FE731A400260704701684FF6DD
:1002E000FE72114001600021016041608160C160C7
:1002F0004B49884208D14A490839496841F00F0101
:10030000474A083A51608AE045491431884208D189
:1003100043490839496841F0F001414A083A5160BF
:100320007DE03F492831884208D13D490839496874
:1003300041F470613A4A083A516070E038493C3102
:10034000884208D136490839496841F47041344A35
:10035000083A516063E032495031884208D130494F
:100360000839496841F470212D4A083A516056E035
:100370002B496431884208D129490839496841F438
:100380007001274A083A516049E02549783188428E
:1003900008D123490839496841F07061204A083A78
:1003A00051603CE01F49884206D1011F096841F0B5
:1003B0000F01021F116032E01A491431884208D13E
:1003C0001849091F096841F0F001164A121F11600F
:1003D00025E014492831884208D11249091F0968CB
:1003E00041F470610F4A121F116018E00D493C3151
:1003F000884208D10B49091F096841F47041094A34
:10040000121F11600BE007495031884207D105499E
:10041000091F096841F47021024A121F11607047D8
:10042000080002400804024001460020002201F0BA
:10043000805313B1054B1A6801E0054B1A6802EAB4
:1004400001030BB1012000E00020704700040240CE
:100450000000024010B50022026847F6F0739A438C
:100460000C6A8B6823430C6923434C6923438C69D2
:100470002343CC6923434C6A23438C6A23431A43A6
:100480000260CB6843600B6883604B68C36010BD3B
:10049000F0B58BB007460C4615461E4601210846AE
:1004A00000F036F93846FFF719FF00940195002057
:1004B00002900396049080200590002006900790FB
:1004C000202008904FF44050099000200A9069467F
:1004D0003846FFF7BFFF0BB0F0BDF0B58BB0074655
:1004E0000C4615461E460121084600F011F9384613
:1004F000FFF7F4FE0094019510200290039600206F
:1005000004908020059000200690079008904FF4FA
:100510000050099000200A9069463846FFF79AFF7C
:1005200000213846FFF7CEFE0BB0F0BD70472DE935
:10053000F041024600250026002000230024002769
:1005400091F803C00CF00F0591F803C00CF0100CEB
:10055000BCF1000F03D091F802C04CEA050591F8F8
:1005600000C0BCF1000F31D0146800202BE04FF028
:10057000010C0CFA00F3B1F800C00CEA03069E422D
:1005800020D183004FF00F0C0CFA03F7BC4305FA9F
:1005900003FC4CEA040491F803C0BCF1280F06D117
:1005A0004FF0010C0CFA00FCC2F814C00AE091F8FC
:1005B00003C0BCF1480F05D14FF0010C0CFA00FC50
:1005C000C2F810C0401C0828D1D31460B1F800C094
:1005D000BCF1FF0F34DD546800202EE000F1080C60
:1005E0004FF0010808FA0CF3B1F800C00CEA03065A
:1005F0009E4221D183004FF00F0C0CFA03F7BC434D
:1006000005FA03FC4CEA040491F803C0BCF1280F7E
:1006100005D100F1080C08FA0CF8C2F8148091F822
:1006200003C0BCF1480F07D100F1080C4FF00108DE
:1006300008FA0CF8C2F81080401C0828CED3546089
:10064000BDE8F0810161704700BFFEE708B50121F8
:10065000102000F06DF8FF20ADF8000010208DF89C
:10066000030003208DF8020069460448FFF75FFF8E
:10067000FF210248FFF7E6FF08BD0000001001401F
:1006800000BFFEE77047000070B5002100230F2275
:10069000C47804B3154C246804F4E064C4F5E06441
:1006A000210AC1F10403CA40447804FA03F18478B2
:1006B0001440214309010E4C0678A155047804F03A
:1006C0001F050124AC4005786D11AD0005F1E02552
:1006D000C5F8004109E0047804F01F050124AC408E
:1006E000044D0678761145F8264070BD0CED00E00B
:1006F00000E400E080E100E002490143024A1160A9
:10070000704700000000FA050CED00E070470000A3
:1007100029B1064A52690243044B5A6104E0034A74
:1007200052698243014B5A61704700000010024039
:1007300029B1064A92690243044B9A6104E0034AD4
:1007400092698243014B9A61704700000010024099
:1007500030B500210022002400232D4D6D6805F0E6
:100760000C0121B1042905D0082923D105E0294D28
:10077000056022E0274D05601FE0254D6D6805F4FA
:100780007012234D6D6805F48034022505EB92420A
:100790001CB9214D554305600BE01D4D6D6805F4F6
:1007A00000351DB11C4D5543056002E0194D554300
:1007B000056002E0174D056000BF00BF144D6D6875
:1007C00005F0F0010909154D6B5C0568DD404560D9
:1007D0000F4D6D6805F4E061090A104D6B5C4568CA
:1007E000DD4085600A4D6D6805F46051C90A0B4D06
:1007F0006B5C4568DD40C560054D6D6805F44041A2
:10080000890B074D6B5CC568B5FBF3F5056130BD21
:100810000010024000127A0000093D000000002094
:1008200010000020704710B500F002F810BD000065
:100830000CB50020019000903348006840F48030EF
:100840003149086000BF3048006800F40030009073
:100850000198401C0190009818B90198B0F5A06F5C
:10086000F1D12948006800F4003010B10120009057
:1008700001E0002000900098012843D1234800683F
:1008800040F01000214908600846006820F003008D
:1008900008600846006840F0020008601A48406896
:1008A000194948600846406848600846406840F476
:1008B000806048600846406820F47C104860084624
:1008C000406840F4E81048600846006840F08070D6
:1008D000086000BF0C48006800F000700028F9D0E4
:1008E0000948406820F0030007494860084640680E
:1008F00040F00200486000BF0348406800F00C0070
:100900000828F9D10CBD0000001002400020024070
:10091000042808D14FF0E021096941F004014FF0AB
:10092000E022116107E04FF0E021096921F00401A4
:100930004FF0E022116170477047000010B5044687
:100940006FF00400FFF7E4FFE11704EB5171C1F30E
:10095000C701074A11701046007800EB4001C1EB57
:10096000C0104FF6FF7101EAC0000249088010BDB7
:10097000180000201A00002010B51348006840F04D
:1009800001001149086008464068104908400E49B6
:100990004860084600680E4908400B490860084650
:1009A000006820F4802008600846406820F4FE00BB
:1009B00048604FF41F008860FFF735FF4FF000607C
:1009C0000449086010BD0000001002400000FFF85C
:1009D000FFFFF6FE08ED00E010B540F224410C48A0
:1009E00000F0D9F898B10A4800880948001D00882D
:1009F00000210848FFF766FCFFF7CAFB0121054804
:100A0000FFF760FC40F22441014800F074F810BD8B
:100A1000003801405800024010B586B0044601215C
:100A20000420FFF785FE01218803FFF781FE0121E5
:100A30000846FFF77DFE4FF40070ADF81400032068
:100A40008DF8160018208DF8170005A92248FFF729
:100A50006EFD4FF48060ADF8140004208DF817008F
:100A600005A91D48FFF763FD01940020ADF80800BB
:100A7000ADF80A00ADF80C00ADF810000C20ADF890
:100A80000E0001A9154800F0D5F80121134800F027
:100A900041F84021114800F025F8012240F224419C
:100AA0000E4800F0A2F801210D48FFF70BFC0122CF
:100AB00040210A4800F03AF825208DF80000032074
:100AC0008DF801008DF8020001208DF803006846C2
:100AD000FFF7DAFD06B010BD000801400038014004
:100AE0005800024001F40072B2F5007F00D100BF4F
:100AF000CA430280704710B50022002340F66A14F2
:100B0000A14200D100BF0A1201249440A3B2DC43E9
:100B1000048010BD21B1828942F40052828104E038
:100B200082894DF6FF731A40828170471AB1838A19
:100B30000B43838202E0838A8B43838270470000E9
:100B4000012813D10B490978491C0A4A1170114632
:100B50000978022903DC0021074A116005E0012120
:100B6000054A11600021034A117000E000BF00BF78
:100B70007047000017000020840122420246002036
:100B8000B1F5007F00D100BF13880B400BB10120ED
:100B900000E00020704770B50246002400230025C5
:100BA000002040F66A16B14200D100BFC1F34215E1
:100BB00001F01F03012606FA03F3012D02D19689E5
:100BC000334006E0022D02D1168A334001E0968AB6
:100BD00033400C12012606FA04F41688344013B18F
:100BE0000CB1012000E0002070BDF0B503460024E8
:100BF00000260025002040F66A17B94200D100BF48
:100C00001846C1F3421401F01F06012707FA06F542
:100C1000012C01D10C3004E0022C01D1103000E095
:100C200014301AB107682F43076002E00768AF432A
:100C30000760F0BD2DE9F04786B005460E4600245A
:100C4000A24600BFA1460027B08900B100BF2F46D1
:100C50002C8A4CF6FF700440F08804432C82AC8947
:100C60004EF6F3100440B088318908437189084377
:100C70000443AC81AC8A4FF6FF400440B089044382
:100C8000AC8201A8FFF764FD1F48874202D1DDF85E
:100C900010A001E0DDF80CA0A88900F4004040B1EC
:100CA0000AEBCA0000EB0A1031684900B0FBF1F80A
:100CB00007E00AEBCA0000EB0A1031688900B0FBBC
:100CC000F1F86420B8FBF0F004012009642101FB75
:100CD0001089A88900F4004040B1322000EBC9001F
:100CE000B0FBF1F000F00700044308E0322000EB15
:100CF00009106421B0FBF1F000F00F0004432C81D7
:100D000006B0BDE8F087000000380140C1F30802DA
:100D10008280704700BFFEE7014A024900F013B825
:100D2000B50D00081C00002002E008C8121F08C111
:100D3000002AFAD170477047002001E001C1121F5C
:100D4000002AFBD170472DE9F04116460F460446B4
:100D5000002503E03946B047641C6D1C207800284C
:100D6000F8D12846BDE8F0810146114A12884A436D
:100D70004FF0E0235A6100229A611A46126942F04C
:100D800001021A6100BF4FF0E022106900F0010279
:100D90001AB100F48032002AF5D04FF0E022126937
:100DA00022F001024FF0E0231A6100229A6170479D
:100DB0001A00002070B504460D46E1B20548FFF761
:100DC000A5FF00BF80210348FFF7D8FE0028F9D017
:100DD000204670BD0038014000244820FFF7AEFDDA
:100DE0004FF4A060FFF788FC0C23154A15491648FC
:100DF000FFF74EFB0F23154A124913481438FFF72B
:100E00006CFBFFF723FC4FF41650FFF705FE15E0CF
:100E1000601CC4B2142094FBF0F100FB114038B9FF
:100E20000B48006808B9012000E00020084908606C
:100E3000C82C00D100240A20FFF796FFE8E7000045
:100E40002000002004380140580002402C000020FF
:100E500080012242740E00080000002020000000E3
:100E6000280D0008940E0008200000202004000037
:100E7000380D000800000000010203040102030411
:100E80000607080902040608000000000000000030
:040E9000000000005E
:0400000508000131BD
:00000001FF
